:020000040800F2
:1000000000800020E93A0008B5090008B709000897
:10001000B9090008BB090008BD090008000000007C
:10002000000000000000000000000000713800081F
:10003000BF090008000000001139000875390008E8
:10004000393B0008393B0008393B0008393B0008C0
:10005000393B0008393B0008393B0008393B0008B0
:10006000393B0008393B0008393B0008393B0008A0
:10007000393B0008393B0008393B0008393B000890
:10008000393B000800000000393B0008393B0008FC
:10009000393B0008393B0008393B0008393B000870
:1000A000393B0008393B0008393B0008393B000860
:1000B000C1090008393B0008393B0008393B0008FA
:1000C000393B0008393B0008393B0008393B000840
:1000D000393B0008393B0008393B0008393B000830
:1000E000393B0008393B0008393B0008393B000820
:1000F000393B0008393B0008393B0008000000008C
:1001000000000000393B000800000000393B0008F7
:10011000393B000800000000393B0008393B00086B
:10012000393B0008393B0008393B0008393B0008DF
:10013000393B00080000000000000000393B0008C7
:10014000393B0008393B00080000000000000000B7
:10015000000000000000000000000000000000009F
:10016000000000000000000000000000393B000813
:10017000393B000800000000000000000000000003
:1001800000000000393B00080000000000000000F3
:10019000000000000000000000000000000000005F
:1001A0000000000000000000393B0008393B000857
:1001B000393B0008393B0008393B000800000000CB
:1001C00000000000393B00080000000000000000B3
:0801D000393B0008393B00082F
:1001E0000348044B834202D0034B03B118477047C6
:1001F0001000002010000020000000000548064903
:100200000B1AD90F01EBA301491002D0034B03B124
:100210001847704710000020100000200000000068
:1002200010B5064C237843B9FFF7DAFF044B13B13E
:100230000448AFF300800123237010BD100000209C
:10024000000000003C3B000808B5044B1BB104490A
:100250000448AFF30080BDE80840CFE7000000008D
:10026000140000203C3B000870B50D4E0D4D761B70
:10027000B61006D00024013455F8043B9847A64236
:10028000F9D1094E094D761B03F058FCB61006D083
:100290000024013455F8043B9847A642F9D170BDBB
:1002A000B03B0008B03B0008B43B0008B03B00087E
:1002B000F0B4860746D0541E002A3CD0CAB203468A
:1002C00002E014F1FF3436D303F8012B9D07F8D177
:1002D000032C29D9CDB245EA05250F2C45EA054561
:1002E00033D9A4F11006360903F1200707EB0617EE
:1002F00003F1100242E9045542E902551032BA42B4
:10030000F8D1721C14F00C0F03EB021204F00F066C
:1003100013D0331F23F003030433134442F8045B68
:100320009342FBD106F003042CB1C9B21C4403F87C
:10033000011B9C42FBD1F0BC704734461346002C95
:10034000F3D1F8E714460346C2E71A462646E0E72B
:1003500053B94AB9002908BF00281CBF4FF0FF312C
:100360004FF0FF3000F06EB9ADF1080C6DE904CE2E
:1003700000F006F8DDF804E0DDE9022304B0704780
:100380002DE9F047089D04468C46002B40F0838001
:100390008A42174647D9B2FA82F242B1C2F120002E
:1003A00024FA00F09140974040EA010C94404FEA53
:1003B0001748230CBCFBF8F61FFA87FE08FB16C192
:1003C00043EA014306FB0EF1994209D9FB1806F1F5
:1003D000FF3080F01981994240F21681023E3B4481
:1003E0005B1AA4B2B3FBF8F008FB103344EA0344F1
:1003F00000FB0EFEA64509D93C1900F1FF3380F041
:100400000581A64540F2028102383C4440EA06409C
:10041000A4EB0E0400261DB1D4400023C5E900431F
:100420003146BDE8F08702B9FFDEB2FA82F2002A57
:1004300050D1CB1B4FEA174E1FFA87F80126B3FBAA
:10044000FEFC210C0EFB1C3341EA034108FB0CF3BC
:100450008B4207D979180CF1FF3002D28B4200F29F
:10046000E9808446C91AA3B2B1FBFEF00EFB10115D
:1004700043EA014408FB00F8A04507D93C1900F104
:10048000FF3302D2A04500F2D9801846A4EB08043D
:1004900040EA0C40BFE78B4209D9002D00F0B18043
:1004A0000026C5E9000130463146BDE8F087B3FAC1
:1004B00083F6002E4AD18B4202D3824200F2B880EA
:1004C000841A61EB030101208C46002DA8D0C5E9F8
:1004D000004CA5E7C2F1200320FA03F6974001FA89
:1004E00002F04FEA174ED9403043030CB1FBFEF641
:1004F0001FFA87F80EFB161143EA014306FB08F1C9
:10050000994204FA02F409D9FB1806F1FF3C80F085
:100510008D80994240F28A80023E3B445B1A81B250
:10052000B3FBFEF00EFB103341EA034100FB08F37E
:100530008B4207D9791800F1FF3C73D28B4271D9F5
:1005400002383944CB1A40EA064678E7C6F1200C57
:1005500003FA06F422FA0CF31C4320FA0CF701FA12
:1005600006F34FEA144E21FA0CF11F433B0CB1FB8A
:10057000FEF91FFA84F80EFB191143EA014109FB49
:1005800008FA8A4502FA06F200FA06F308D9611859
:1005900009F1FF3048D28A4546D9A9F10209214420
:1005A000A1EB0A01BFB2B1FBFEF00EFB101147EA4E
:1005B000014700FB08F8B84507D9E71900F1FF31FA
:1005C0002ED2B8452CD90238274440EA0940A7EB7F
:1005D0000807A0FB02894F45C64649461AD317D0E3
:1005E0005DB1B3EB0E0267EB010707FA0CFCF240BA
:1005F0004CEA0202F740C5E9002700263146BDE873
:10060000F0872E4628460BE70646E9E61846FDE643
:100610004345E5D2B8EB020E69EB04010138DFE790
:100620000846D2E760468DE78146B9E7664675E73A
:1006300030464AE7ACF1020C394413E702383C4437
:1006400024E700BF704700BF30B5A5B038220021B5
:1006500016A8FFF72DFE00241194129413941494FD
:100660001594442221466846FFF722FE4FF400709D
:1006700001F0B4F8012316934FF48033179302234B
:100680001D9303251E951F931022209221932293E0
:10069000239316A800F036FB0F23119312951394A1
:1006A00014941594294611A800F0E2FD82230093CA
:1006B00002940794684600F01FFF25B030BD08B5CE
:1006C00000F0D4FAFFF7C0FF00F016F800F064F86D
:1006D00000F0A2F800F006F900F08AF802F03EFF00
:1006E000FEE708B50368B3F1804F00D008BD00F005
:1006F000CDFAFBE77047000030B58BB000240894BA
:100700000994224BDA6C42F02002DA64DA6C02F0CF
:1007100020020192019ADA6C42F04002DA64DA6C4B
:1007200002F040020292029ADA6C42F00102DA64AC
:10073000DA6C02F001020392039ADA6C42F00202D0
:10074000DA64DB6C03F002030493049B4FF48063D0
:10075000059303250695079405A90D4800F09CF91B
:1007600049F6F34305930695079405A94FF0904089
:1007700000F092F940F2F91305930695079405A944
:10078000044800F089F90BB030BD00BF00100240F2
:10079000001800480004004808B50548054B0360F0
:1007A00000F04CFA00B908BDFFF7A4FFFBE700BF5B
:1007B000780D0020000C02400268094B9A4200D0DC
:1007C000704782B003F580639A6C42F008029A6425
:1007D0009B6C03F008030193019B02B0704700BFBC
:1007E000000C024008B5012002F0D7FEFBE7000034
:1007F00030B587B001AC064D0FCD0FC42B68236018
:10080000002101A802F0AFFE024B186007B030BD16
:10081000543B0008A00D002008B51548154B036097
:10082000A3F13E53A3F57D23A3F6442343600023A5
:1008300083600122C260036143618361C36103621B
:1008400001F0A6F850B90021094801F0FFF840B9BD
:100850000021074801F028F930B908BDFFF74AFF29
:10086000F1E7FFF747FFF3E7FFF744FFF5E700BFC6
:10087000A40D00200058004010B588B00023039359
:1008800004930593069307930268144B9A4201D090
:1008900008B010BD124CE36C43F00103E364E36C59
:1008A00003F001030193019B4FF440730393122360
:1008B000049301230593002306930423079303A9BC
:1008C0004FF0904000F0E8F8A36D43F48003A36577
:1008D000A36D03F480030293029BD9E70058004004
:1008E0000010024008B51748174B03604FF4E1337E
:1008F000436000238360C36003610C224261836113
:10090000C36103624362836202F092F970B900210D
:100910000C4802F018FA60B900210A4802F038FACF
:1009200050B9084802F0F0F948B908BDFFF7E2FEF7
:10093000EDE7FFF7DFFEEFE7FFF7DCFEF1E7FFF79C
:10094000D9FEF2E7F00D00200044004000B589B068
:100950000023039304930593069307930268144BB3
:100960009A4202D009B05DF804FB03F5E6339A6DB4
:1009700042F400329A659A6D02F400320192019AB3
:10098000DA6C42F00102DA64DB6C03F001030293DB
:10099000029B0C23039302230493002305930693E5
:1009A0000723079303A94FF0904000F075F8D9E7AB
:1009B000004400407047FEE7FEE7FEE7FEE77047B1
:1009C00008B5024801F0C6F808BD00BF7C0E002043
:1009D00000B583B0104B1A6E42F001021A661A6E0F
:1009E00002F001020092009A9A6D42F080529A65DC
:1009F0009B6D03F080530193019B00220F216FF048
:100A0000010000F083FF054A936843F4804393603C
:100A100003B05DF804FB00BF00100240007000400E
:100A200000B589B0014600221C2000F06FFF1C2099
:100A300000F0A0FF154B9A6D42F001029A659B6D84
:100A400003F001030193019B02A903A800F036FD06
:100A500000F010FD0E4BA3FB00239B0C013B0D4847
:100A60004FF08042026040F2E732C26043600023F0
:100A70000361836001F0DAF918B1012009B05DF873
:100A800004FB044801F03EF8F8E700BF0010024004
:100A900083DE1B437C0E0020F0B583B0002336E0DC
:100AA000052400E00024B4403C4302355F4E46F884
:100AB00025405F4C2568D44325EA02064F6817F4A9
:100AC000803F01D042EA0506594D2E606D6804EA68
:100AD00005064F6817F4003F01D042EA0506544D61
:100AE0006E60AD6804EA05064F6817F4801F01D0F8
:100AF00042EA05064E4DAE60ED682C404E6816F495
:100B0000001F01D042EA0504494AD46001330A6853
:100B100032FA03F400F0878001249C402240F5D093
:100B20004D686E1E012E03D9112D01D0122D12D148
:100B300086685F000325BD4026EA0506CD68BD40F6
:100B400035438560466826EA04064D68C5F30014FF
:100B50009C4034434460C7685E000325B540EC43C5
:100B600027EA05078D68B5403D43C5604D68022DF5
:100B700001D0122D13D1DF08083750F827E003F019
:100B800007054FEA850C0F2505FA0CF52EEA050E30
:100B90000D6905FA0CF545EA0E0540F82750056881
:100BA00025404C6804F00304B4402C4304604C68B6
:100BB00014F0805FAAD01F4C256E45F00105256614
:100BC000246E04F001040194019C9D08AE1C174C96
:100BD00054F8267003F00304A6000F24B44027EA5B
:100BE0000407B0F1904F3FF45DAF134CA04212D018
:100BF00004F58064A04210D004F58064A0420ED0B9
:100C000004F58064A0420CD004F58064A0423FF457
:100C100047AF062447E7012445E7022443E70324BE
:100C200041E704243FE703B0F0BD00BF00000140EE
:100C3000000401400010024000040048A0B110B5BB
:100C4000044690F8213053B1002060626060A060DB
:100C5000E06020616061012384F8213010BD80F8DC
:100C60002030FFF7A9FDEFE70120704710B5032002
:100C700000F03AFE0020FFF7D3FE10B10124204619
:100C800010BD0446FFF7A4FEF9E70000034A13680D
:100C9000034909680B441360704700BFC80E002069
:100CA00000000020014B1868704700BFC80E0020EC
:100CB000124AD36803F00303D068C0F30310013075
:100CC000032B11D00E4BB3FBF0F30C4AD068C0F3EA
:100CD000062000FB03F0094BDB68C3F341630133DB
:100CE0005B00B0FBF3F07047054BB3FBF0F3D0684B
:100CF000C0F3062000FB03F0EDE700BF0010024048
:100D00000024F400002800F0548270B582B004463C
:100D1000036813F0010F37D0B44A936803F00C0353
:100D2000D26802F003020C2B23D0082B23D0636877
:100D3000B3F5803F4ED0B3F5A02F51D0AB4B1A681E
:100D400022F480321A601A6822F480221A606368E2
:100D5000002B52D0FFF7A6FF0546A44B1B6813F4E7
:100D6000003F11D1FFF79EFF401B6428F5D90320F7
:100D700028E2032AD9D19D4B1B6813F4003F03D00E
:100D80006368002B00F01782236813F0020F5DD018
:100D9000964A936803F00C03D26802F003020C2B0E
:100DA0003AD0042B3AD0E368002B75D08F4A1368F1
:100DB00043F480731360FFF775FF05468B4B1B6888
:100DC00013F4806F5FD1FFF76DFF401B0228F5D948
:100DD0000320F7E1854A136843F480331360B6E7D4
:100DE00003F18043A3F53C331A6842F480221A6071
:100DF0001A6842F480321A60A9E7FFF753FF0546EC
:100E00007A4B1B6813F4003FBED0FFF74BFF401B2B
:100E10006428F5D90320D5E1022AC2D1734B1B689F
:100E200013F4806F03D0E368002B00F0C6816F4A93
:100E3000536823F0FE43216943EA016353606C4B1E
:100E40001868FFF7EDFD002840F0B981236813F022
:100E5000080F4CD063699BB3644AD2F8943043F0D6
:100E60000103C2F89430FFF71DFF05465F4BD3F82E
:100E7000943013F0020F3AD1FFF714FF401B022801
:100E8000F4D903209EE1594A536823F0FE432169B7
:100E900043EA01635360D9E7544A136823F480732B
:100EA0001360FFF7FFFE0546504B1B6813F4806F7D
:100EB000CCD0FFF7F7FE401B0228F5D9032081E1D3
:100EC0004A4AD2F8943023F00103C2F89430FFF775
:100ED000E9FE0546454BD3F8943013F0020F06D0D7
:100EE000FFF7E0FE401B0228F4D903206AE12368E3
:100EF00013F0040F00F081803C4B9B6D13F0805F7A
:100F000036D13A4B9A6D42F080529A659B6D03F050
:100F100080530193019B0125364B1B6813F4807F9E
:100F200028D0A368012B39D0052B3FD02F4BD3F805
:100F3000902022F00102C3F89020D3F8902022F0F4
:100F40000402C3F89020A368002B3DD0FFF7AAFE4F
:100F50000646264BD3F8903013F0020F4CD1FFF722
:100F6000A1FE801B41F288339842F2D9032029E187
:100F70000025D1E71F4A136843F480731360FFF71D
:100F800091FE06461B4B1B6813F4807FC9D1FFF707
:100F900089FE801B0228F5D9032013E1134AD2F8F9
:100FA000903043F00103C2F89030CCE70F4BD3F8F8
:100FB000902042F00402C3F89020D3F8902042F031
:100FC0000102C3F89020BEE7FFF76CFE0646074B10
:100FD000D3F8903013F0020F0ED0FFF763FE801BA2
:100FE00041F288339842F2D90320EBE0001002402E
:100FF0000400002000700040E5B9236813F0200FC2
:1010000035D0A369E3B1774AD2F8983043F00103B1
:10101000C2F89830FFF746FE0546724BD3F8983079
:1010200013F0020F23D1FFF73DFE401B0228F4D935
:101030000320C7E06B4A936D23F080539365DCE790
:10104000684AD2F8983023F00103C2F89830FFF7CD
:1010500029FE0546634BD3F8983013F0020F06D0F3
:10106000FFF720FE401B0228F4D90320AAE0E36921
:10107000002B00F0A6805B4A926802F00C020C2A5A
:1010800069D0022B1DD0574B1A6822F080721A606B
:10109000DA6822F00302DA60DA6822F0887222F459
:1010A0008032DA60FFF7FEFD04464E4B1B6813F0FA
:1010B000007F4ED0FFF7F6FD001B0228F5D9032074
:1010C00080E0484A136823F080731360FFF7EAFD5D
:1010D0000546444B1B6813F0007F06D0FFF7E2FD86
:1010E000401B0228F5D903206CE03E4AD3683E49F4
:1010F0001940236A606A013843EA0013A06A43EA90
:101100000023206B4008013843EA4053606B4008DD
:10111000013843EA4063E06A43EAC0630B43D360AB
:10112000136843F080731360D36843F08073D36017
:10113000FFF7B8FD04462B4B1B6813F0007F06D168
:10114000FFF7B0FD001B0228F5D903203AE000208C
:1011500038E0002036E0012B36D0224BDB6803F06C
:101160000301226A914231D103F0F002616A013930
:10117000B2EB011F2CD103F4FE42A16AB2EB012FA6
:1011800028D103F07842E16AB2EBC16F24D103F4B5
:10119000C001226B5208013AB1EB425F1ED103F04D
:1011A000C063626B5208013AB3EB426F18D1002062
:1011B00008E001207047012004E0012002E0012046
:1011C00000E0002002B070BD0120FBE70120F9E73C
:1011D0000120F7E70120F5E70120F3E70120F1E71F
:1011E0000120EFE7001002400C809F011E4B9B681E
:1011F00003F00C03042B32D01B4B9B6803F00C0351
:10120000082B2ED0184B9B6803F00C030C2B01D03D
:1012100000207047144AD36803F00303D068C0F37A
:1012200003100130032B11D0104BB3FBF0F30E4A27
:10123000D068C0F3062000FB03F00B4BDB68C3F360
:10124000416301335B00B0FBF3F07047074BB3FB26
:10125000F0F3D068C0F3062000FB03F0EDE703488D
:1012600070470248704700BF001002400024F4009D
:10127000002800F0E680F8B50C460546744B1B6864
:1012800003F00F038B420BD2714A136823F00F0354
:101290000B431360136803F00F038B4240F0D380BD
:1012A0002E6816F001065FD06B68032B15D0022B59
:1012B00033D0684B1B6813F4806F00F0C680FFF7D3
:1012C00095FF654B984233D9624A936823F0F00347
:1012D00043F08003936080262BE05E4B1B6813F085
:1012E000007F01D101208BE0FFF7E2FC5A4B9842CE
:1012F0001AD9584B9B6813F0F00F05D02E6816F0E2
:10130000020616D0AB688BB9524A936823F0F003FB
:1013100043F08003936080260BE04E4B1B6813F470
:10132000003FCCD101206BE0002602E0002600E067
:101330000026484A936823F0030369680B439360CF
:10134000FFF7B0FC0746434B9B6803F00C036A6849
:10135000B3EB820F08D0FFF7A5FCC01B41F2883326
:101360009842F0D903204BE02B6813F0020F48D0CD
:1013700013F0040F04D0374A936843F4E06393609A
:101380002B6813F0080F06D0324A936823F47C537D
:1013900043F4E06393602F4A936823F0F003A96855
:1013A0000B4393602A4B1B6803F00F03A34230D812
:1013B0002B6813F0040F06D0264A936823F4E063E9
:1013C000E9680B4393602B6813F0080F07D0214A9C
:1013D000936823F46053296943EAC1039360FFF7DC
:1013E00005FF1C4B9B68C3F303131C4AD35C03F03B
:1013F0001F03D8401A4B18601A4B1868FFF710FBF0
:10140000F8BD802ECED1134A936823F0F003936089
:10141000C8E70F4A136823F00F0323431360FFF755
:1014200041FC06460A4B1B6803F00F03A342BFD0E2
:10143000FFF738FC801B41F288339842F2D9032031
:10144000DEE7012070470120DAE70120D8E700BF7E
:10145000002002400010024000B4C404883B000891
:101460000800002004000020014B1868704700BFEE
:101470000800002008B5FFF7F7FF054B9B68C3F392
:101480000223044AD35C03F01F03D84008BD00BF09
:1014900000100240983B000808B5FFF7E5FF054B38
:1014A0009B68C3F3C223044AD35C03F01F03D840F4
:1014B00008BD00BF00100240983B00080F230360E6
:1014C0000B4B9A6802F0030242609A6802F0F00245
:1014D00082609A6802F4E062C2609B68DB0803F4F1
:1014E000E0630361034B1B6803F00F030B6070475D
:1014F0000010024000200240F0B583B004460368AB
:1015000013F4002F69D0B34B9B6D13F0805F1ED195
:10151000B04B9A6D42F080529A659B6D03F08053F8
:101520000193019B0126AC4A136843F48073136056
:10153000FFF7B8FB0546A84B1B6813F4807F08D162
:10154000FFF7B0FB401B0228F5D9032502E0002677
:10155000E9E7002545BB9F4BD3F8903013F4407367
:1015600015D0226C9A4212D09A4AD2F8903023F4C5
:101570004073D2F8901041F48031C2F89010D2F844
:10158000901021F48031C2F89010C2F8903013F01E
:10159000010F10D145B98F4AD2F8903023F440732F
:1015A000216C0B43C2F89030C6B18A4A936D23F088
:1015B0008053936512E0FFF775FB0746854BD3F820
:1015C000903013F0020FE5D1FFF76CFBC01B41F226
:1015D00088339842F2D90325DCE70025236813F00D
:1015E000010F08D07B4AD2F8883023F003036168EA
:1015F0000B43C2F88830236813F0020F08D0754AF5
:10160000D2F8883023F00C03A1680B43C2F888306D
:10161000236813F0040F08D06E4AD2F8883023F004
:101620003003E1680B43C2F88830236813F0080FD9
:1016300008D0684AD2F8883023F0C00321690B43F0
:10164000C2F88830236813F0200F08D0614AD2F81E
:10165000883023F4406361690B43C2F88830236803
:1016600013F0400F08D05B4AD2F8883023F440537F
:10167000A1690B43C2F88830236813F0800F08D0AB
:10168000544AD2F8883023F44043E1690B43C2F84E
:101690008830236813F4807F08D04E4AD2F888300F
:1016A00023F44033216A0B43C2F88830236813F4D3
:1016B000007F08D0474AD2F8883023F44023616A7B
:1016C0000B43C2F88830236813F4806F0CD0414A72
:1016D000D2F8883023F44013A16A0B43C2F8883053
:1016E000A36AB3F5801F57D0236813F4006F0CD0A2
:1016F000384AD2F8883023F44003E16A0B43C2F839
:101700008830E36AB3F5800F4BD0236813F4805F11
:101710000CD0304AD2F8883023F04073216B0B4351
:10172000C2F88830236BB3F1807F3FD0236813F475
:10173000005F0CD0274AD2F8883023F04063616BF9
:101740000B43C2F88830636BB3F1006F33D023686A
:1017500013F4804F0CD01F4AD2F8883023F0406336
:10176000A16B0B43C2F88830A36BB3F1006F27D095
:10177000236813F4004F0CD0164AD2F8883023F0B7
:101780004053E16B0B43C2F88830E36BB3F1805FE9
:101790001BD0284603B0F0BDD36843F48013D36058
:1017A000A2E7D36843F48013D360AEE7D36843F471
:1017B0008013D360BAE7D36843F48013D360C6E7DD
:1017C000D36843F48013D360D2E7D36843F4803303
:1017D000D360DEE70010024000700040002836D1E0
:1017E0003E4B1B6803F4C063B3F5806F08D03B4ADF
:1017F000D2F8803023F48073C2F880300020704724
:10180000364AD2F8803023F48073C2F880301368EF
:1018100023F4C06343F400731360314B1A6832231E
:1018200003FB02F32F4AA2FB03239B0C013300E0CE
:10183000013B2A4A526912F4806F01D0002BF7D184
:10184000264B5B6913F4806F44D100207047B0F5DC
:10185000007F08D0214A136823F4C06343F48063F7
:101860001360002070471D4B1B6803F4C063B3F581
:10187000806F08D0194AD2F8803043F48073C2F8E0
:10188000803000207047154AD2F8803043F48073CE
:10189000C2F88030136823F4C06343F4007313600C
:1018A0000F4B1A68322303FB02F30E4AA2FB0323F9
:1018B0009B0C013300E0013B084A526912F4806F2F
:1018C00001D0002BF7D1054B5B6913F4806F03D176
:1018D00000207047032070470320704700700040CD
:1018E0000800002083DE1B43074AD36823F4E0632B
:1018F0001B041B0C000200F4E060034343F0BF63D1
:1019000043F40033D360704700ED00E030B4174B70
:10191000DB68C3F30223C3F10704042C28BF0424AB
:101920001D1D062D18D9033B4FF0FF3505FA04F4B1
:1019300021EA0401994005FA03F322EA030319435B
:1019400000280BDB0901C9B200F1604000F56140DD
:1019500080F8001330BC70470023E5E700F00F006B
:101960000901C9B2024B1954F4E700BF00ED00E0D1
:1019700014ED00E0002807DB00F01F0240090123FE
:101980009340024A42F82030704700BF00E100E077
:10199000002859D010B5044690F84130002B43D0B0
:1019A000242384F841302268136823F00103136074
:1019B0006368226823F0706313612268936823F4DC
:1019C00000439360E368012B33D0A368226843F49B
:1019D00004439360E368022B31D02268536843F0DC
:1019E000007343F4004353602268D36823F4004338
:1019F000D360236962691343A169226843EA012322
:101A0000D360E369216A22680B431360226813687C
:101A100043F00103136000206064202384F8413008
:101A2000206384F8420010BD80F84030FEF724FFA8
:101A3000B6E7A368226843F400439360CAE72368CB
:101A40004FF400625A60C8E70120704790F84130B7
:101A5000DBB2202B24D190F84030012B22D001237F
:101A600080F84030242380F841300268136823F066
:101A7000010313600268136823F480531360026843
:101A80001368194311600268136843F0010313607F
:101A9000202380F84130002380F8403018467047FA
:101AA000022070470220704790F84130DBB2202BB3
:101AB00022D190F84030012B20D0012380F8403013
:101AC000242380F841300268136823F00103136077
:101AD0000268136823F4706343EA0121116002680D
:101AE000136843F001031360202380F84130002382
:101AF00080F8403018467047022070470220704737
:101B00007047000090F83D30DBB2012B16D1022364
:101B100080F83D300268D36843F00103D360026867
:101B20009168094B0B40062B0AD0B3F5803F09D0D2
:101B3000136843F0010313600020704701207047D1
:101B40000020704700207047070001007047704771
:101B50007047704710B5044603681A6912F0020F07
:101B600012D0DA6812F0020F0ED06FF002021A6182
:101B70000123037703689B6913F0030F00F09F8034
:101B8000FFF7E5FF0023237723681A6912F0040F9B
:101B900013D0DA6812F0040F0FD06FF004021A614C
:101BA0000223237723689B6913F4407F00F08D8024
:101BB0002046FFF7CCFF0023237723681A6912F031
:101BC000080F12D0DA6812F0080F0ED06FF008027A
:101BD0001A61042323772368DB6913F0030F7BD09A
:101BE0002046FFF7B4FF0023237723681A6912F019
:101BF000100F12D0DA6812F0100F0ED06FF0100232
:101C00001A61082323772368DB6913F4407F6AD0C5
:101C10002046FFF79CFF0023237723681A6912F000
:101C2000010F03D0DA6812F0010F63D123681A693B
:101C300012F0800F03D0DA6812F0800F61D12368B0
:101C40001A6912F4807F03D0DA6812F0800F5FD136
:101C500023681A6912F0400F03D0DA6812F0400FBF
:101C60005DD123681A6912F0200F03D0DA6812F0F0
:101C7000200F5BD123681A6912F4801F03D0DA6841
:101C800012F4801F59D123681A6912F4001F03D07F
:101C9000DA6812F4001F57D123681A6912F4800F12
:101CA00003D0DA6812F4800F55D123681A6912F450
:101CB000000F03D0DA6812F4000F53D110BDFFF704
:101CC00045FF2046FFF744FF5CE72046FFF73EFF55
:101CD0002046FFF73DFF6EE72046FFF737FF20461F
:101CE000FFF736FF7FE72046FFF730FF2046FFF77C
:101CF0002FFF90E76FF001021A612046FEF7F1FC1A
:101D000094E76FF080021A61204600F0C0F896E771
:101D10006FF480721A61204600F0BAF898E76FF00D
:101D200040021A612046FFF714FF9AE76FF0200285
:101D30001A61204600F0AAF89CE76FF480121A613D
:101D4000204600F0A6F89EE76FF400121A612046C4
:101D500000F0A0F8A0E76FF480021A61204600F0BE
:101D60009AF8A2E76FF400021A61204600F094F896
:101D7000A4E7000003682C4A90420ED0B0F1804FD7
:101D80000BD0A2F59432904207D002F580629042C7
:101D900003D002F59632904203D123F070034A68D3
:101DA0001343214A90421AD0B0F1804F17D0A2F5C8
:101DB0009432904213D002F5806290420FD002F527
:101DC000963290420BD002F54062904207D002F565
:101DD0008062904203D002F58062904203D123F4E6
:101DE0004073CA68134323F080034A6913430360B6
:101DF0008B68C3620B6883620B4B98420FD003F56C
:101E0000006398420BD003F54063984207D003F576
:101E10008063984203D003F58063984201D10B6937
:101E20000363012343617047002C014060B310B588
:101E3000044690F83D3013B3022384F83D30214628
:101E400051F8040BFFF796FF012384F8483084F81B
:101E50003E3084F83F3084F8403084F8413084F8D4
:101E6000423084F8433084F8443084F8453084F8B4
:101E7000463084F8473084F83D30002010BD80F8AB
:101E80003C30FFF73DFED7E70120704770477047B1
:101E90007047704770477047704700002DE9F8435E
:101EA0000446016883680269134342691343C269A7
:101EB0001343426E13430868944A02401A430A606F
:101EC0002268536823F44053E1680B435360A169CF
:101ED00022688F4B9A4201D0236A1943936823F0FA
:101EE0006E4323F430630B4393602268D36A23F07C
:101EF0000F03616A0B43D3622368864A934223D05F
:101F0000854A934234D0854A93424AD0844A9342C8
:101F100059D07F4A934268D010257D4A934200F001
:101F20009580E369B3F5004F00F0FB82082D00F2C5
:101F30009B85DFE815F04F049F04DD0499051D051E
:101F40009905990599055B0502F55842D2F8882054
:101F500002F00302032A09D8DFE802F002045C065B
:101F60000125DAE70425D8E70825D6E71025D4E7C8
:101F700002F5E632D2F8882002F00C020C2A0ED8C4
:101F8000DFE802F0070D0D0D090D0D0D4A0D0D0DC9
:101F90000B000025C1E70425BFE70825BDE7102594
:101FA000BBE702F5E432D2F8882002F03002202AA2
:101FB00034D004D8A2B3102A34D10425ADE7302A96
:101FC00032D10825A9E702F5E232D2F8882002F0E2
:101FD000C002802A2AD004D852B3402A2AD104252C
:101FE0009BE7C02A28D1082597E702F5C832D2F826
:101FF000882002F44062B2F5006F1FD005D8FAB114
:10200000B2F5806F1ED1042587E7B2F5406F1BD172
:10201000082582E7022580E702257EE702257CE786
:1020200000257AE7102578E7102576E7022574E782
:10203000002572E7102570E710256EE702256CE792
:1020400000256AE7102568E7102566E7082D00F2ED
:102050000E85DFE815F009000C0567000C059D00F2
:102060000C050C050C05D400FFF704FA636AD3B124
:10207000012B36D0022B36D0032B36D0042B36D092
:10208000052B36D0062B36D0072B36D0082B36D072
:10209000092B36D00A2B36D00B2B01D0012303E0BD
:1020A0004FF4807300E00123B0FBF3F3002B00F04A
:1020B000E084666806EB46029A4200F2DC84B3EBE9
:1020C000063F00F2DA84082D00F22882DFE815F0DE
:1020D000CE002602270126027B01260226022602C6
:1020E000D1010223E0E70423DEE70623DCE708232F
:1020F000DAE70A23D8E70C23D6E71023D4E7202316
:10210000D2E74023D0E78023CEE700BFF369FFCFBB
:10211000008000400038014000440040004800407A
:10212000004C0040636AD3B1012B1DD0022B1DD09F
:10213000032B1DD0042B1DD0052B1DD0062B1DD02D
:10214000072B1DD0082B1DD0092B1DD00A2B1DD00D
:102150000B2B01D0012203E04FF4807200E001223A
:10216000A94BB3FBF2F3A1E70222F9E70422F7E758
:102170000622F5E70822F3E70A22F1E70C22EFE74F
:102180001022EDE72022EBE74022E9E78022E7E793
:10219000FFF72CF8636AD3B1012B1CD0022B1CD0A3
:1021A000032B1CD0042B1CD0052B1CD0062B1CD0C1
:1021B000072B1CD0082B1CD0092B1CD00A2B1CD0A1
:1021C0000B2B01D0012303E04FF4807300E00123C7
:1021D000B0FBF3F36AE70223FAE70423F8E70623E8
:1021E000F6E70823F4E70A23F2E70C23F0E71023CD
:1021F000EEE72023ECE74023EAE78023E8E7636A81
:10220000D3B1012B1ED0022B1ED0032B1ED0042BCA
:102210001ED0052B1ED0062B1ED0072B1ED0082B40
:102220001ED0092B1ED00A2B1ED00B2B01D0012251
:1022300003E04FF4807200E001224FF40043B3FB4F
:10224000F2F333E70222F8E70422F6E70622F4E786
:102250000822F2E70A22F0E70C22EEE71022ECE770
:102260002022EAE74022E8E78022E6E7FFF702F9CA
:10227000636AE3B1012B34D0022B35D0032B36D067
:10228000042B37D0052B38D0062B39D0072B3AD06A
:10229000082B3BD0092B3CD00A2B3DD00B2B02D076
:1022A0000122002305E04FF48072002301E00122A7
:1022B00000230021FEF74CF80F0247EA10670602E0
:1022C000626850080023301847F10001FEF740F81B
:1022D000A0F540724D4B9A4200F2D1832368D8603A
:1022E000A9E202220023E4E704220023E1E7062218
:1022F0000023DEE708220023DBE70A220023D8E7D9
:102300000C220023D5E710220023D2E7202200234D
:10231000CFE740220023CCE780220023C9E7636A8D
:10232000E3B1012B31D0022B32D0032B33D0042B5D
:1023300034D0052B35D0062B36D0072B37D0082BC1
:1023400038D0092B39D00A2B3AD00B2B02D00122DE
:10235000002305E04FF48072002301E001220023F6
:1023600029480021FDF7F4FF4FEA012949EA1069E5
:102370004FEA00287008002532462B4618EB000073
:1023800049F10001FDF7E4FFA2E702220023E7E79D
:1023900004220023E4E706220023E1E708220023C9
:1023A000DEE70A220023DBE70C220023D8E7102215
:1023B0000023D5E720220023D2E740220023CFE7E5
:1023C00080220023CCE7FEF711FF636A03B3012BE1
:1023D00031D0022B32D0032B33D0042B34D0052B39
:1023E00035D0062B36D0072B37D0082B38D0092B09
:1023F00039D00A2B3AD00B2B02D00122002309E05E
:102400004FF48072002305E00024F400FFFC0F006D
:10241000012200230021FDF79BFF0F0247EA10670E
:1024200006026268500800252B46301847F100016B
:10243000FDF78EFF4CE702220023EBE70422002386
:10244000E8E706220023E5E708220023E2E70A2264
:102450000023DFE70C220023DCE710220023D9E76A
:1024600020220023D6E740220023D3E78022002346
:10247000D0E7636AE3B1012B32D0022B33D0032BB8
:1024800034D0042B35D0052B36D0062B37D0072B74
:1024900038D0082B39D0092B3AD00A2B3BD00B2B44
:1024A00002D00122002305E04FF48072002301E0F6
:1024B000012200234FF400400021FDF749FF4FEABD
:1024C000012949EA10694FEA0028700800253246C0
:1024D0002B4618EB000049F10001FDF739FFF7E644
:1024E00002220023E6E704220023E3E7062200237A
:1024F000E0E708220023DDE70A220023DAE70C22C6
:102500000023D7E710220023D4E720220023D1E7BD
:1025100040220023CEE780220023CBE701250020C4
:10252000D6E6082D00F25381DFE815F009005600C9
:1025300095005101D3005101510151011201FEF7E3
:1025400099FF636AD3B1012B32D0022B32D0032B17
:1025500032D0042B32D0052B32D0062B32D0072BB1
:1025600032D0082B32D0092B32D00A2B32D00B2B91
:1025700001D0012303E04FF4807300E00123B0FB9E
:10258000F3F261684B0803EB4203B3FBF1F39BB238
:10259000A3F110014FF6EF72914200F272829AB2EB
:1025A00022F00F02C3F3420313432268D36042E1D7
:1025B0000223E4E70423E2E70623E0E70823DEE75B
:1025C0000A23DCE70C23DAE71023D8E72023D6E739
:1025D0004023D4E78023D2E7FEF75EFF636AD3B1DE
:1025E000012B24D0022B24D0032B24D0042B24D065
:1025F000052B24D0062B24D0072B24D0082B24D045
:10260000092B24D00A2B24D00B2B01D0012303E06B
:102610004FF4807300E00123B0FBF3F261684B08D4
:1026200003EB4203B3FBF1F39BB20025B0E70223B7
:10263000F2E70423F0E70623EEE70823ECE70A239A
:10264000EAE70C23E8E71023E6E72023E4E740234A
:10265000E2E78023E0E7636AD3B1012B25D0022BA8
:1026600025D0032B25D0042B25D0052B25D0062BD8
:1026700025D0072B25D0082B25D0092B25D00A2BB8
:1026800025D00B2B01D0012203E04FF4807200E033
:102690000122AD4BB3FBF2F261684B0803EB42033E
:1026A000B3FBF1F39BB2002572E70222F1E70422AB
:1026B000EFE70622EDE70822EBE70A22E9E70C2222
:1026C000E7E71022E5E72022E3E74022E1E7802266
:1026D000DFE7FEF78BFD636AD3B1012B24D0022B19
:1026E00024D0032B24D0042B24D0052B24D0062B5C
:1026F00024D0072B24D0082B24D0092B24D00A2B3C
:1027000024D00B2B01D0012303E04FF4807300E0B1
:102710000123B0FBF3F261684B0803EB4203B3FB08
:10272000F1F39BB2002533E70223F2E70423F0E73D
:102730000623EEE70823ECE70A23EAE70C23E8E7A1
:102740001023E6E72023E4E74023E2E78023E0E7E5
:10275000636AD3B1012B26D0022B26D0032B26D0BF
:10276000042B26D0052B26D0062B26D0072B26D0CF
:10277000082B26D0092B26D00A2B26D00B2B01D0D4
:10278000012203E04FF4807200E001224FF4004385
:10279000B3FBF2F261684B0803EB4203B3FBF1F3C6
:1027A0009BB20025F4E60222F0E70422EEE70622BF
:1027B000ECE70822EAE70A22E8E70C22E6E7102223
:1027C000E4E72022E2E74022E0E78022DEE701257D
:1027D0000023DDE6FEF74EFE636AD3B1012B35D050
:1027E000022B35D0032B35D0042B35D0052B35D01B
:1027F000062B35D0072B35D0082B35D0092B35D0FB
:102800000A2B35D00B2B01D0012303E04FF480734A
:1028100000E00123B0FBF3F3626803EB5203B3FB68
:10282000F2F39BB2A3F110014FF6EF72914200F266
:102830002A812268D3600123A4F86A30A4F86830A2
:102840000023E36623672846BDE8F8830223E1E717
:102850000423DFE70623DDE70823DBE70A23D9E7C4
:102860000C23D7E71023D5E72023D3E74023D1E774
:102870008023CFE7FEF710FE636AD3B1012B23D08C
:10288000022B23D0032B23D0042B23D0052B23D0C2
:10289000062B23D0072B23D0082B23D0092B23D0A2
:1028A0000A2B23D00B2B01D0012303E04FF48073BC
:1028B00000E00123B0FBF3F3626803EB5203B3FBC8
:1028C000F2F39BB20025ADE70223F3E70423F1E71F
:1028D0000623EFE70823EDE70A23EBE70C23E9E7FC
:1028E0001023E7E72023E5E74023E3E78023E1E740
:1028F000636AD3B1012B24D0022B27D0032B27D01E
:10290000042B27D0052B27D0062B27D0072B27D029
:10291000082B27D0092B27D00A2B27D00B2B01D02F
:10292000012203E04FF4807200E00122064BB3FB6A
:10293000F2F3626803EB5203B3FBF2F39BB20025A0
:1029400070E70222F2E700BF0024F4000422EDE762
:102950000622EBE70822E9E70A22E7E70C22E5E78F
:102960001022E3E72022E1E74022DFE78022DDE7D3
:10297000FEF73CFC636AD3B1012B23D0022B23D09A
:10298000032B23D0042B23D0052B23D0062B23D0BD
:10299000072B23D0082B23D0092B23D00A2B23D09D
:1029A0000B2B01D0012303E04FF4807300E00123DF
:1029B000B0FBF3F3626803EB5203B3FBF2F39BB299
:1029C00000252FE70223F3E70423F1E70623EFE7CF
:1029D0000823EDE70A23EBE70C23E9E71023E7E7F9
:1029E0002023E5E74023E3E78023E1E7636AD3B1EF
:1029F000012B25D0022B25D0032B25D0042B25D04D
:102A0000052B25D0062B25D0072B25D0082B25D02C
:102A1000092B25D00A2B25D00B2B01D0012203E056
:102A20004FF4807200E001224FF40043B3FBF2F355
:102A3000626803EB5203B3FBF2F39BB20025F1E6AD
:102A40000222F1E70422EFE70622EDE70822EBE796
:102A50000A22E9E70C22E7E71022E5E72022E3E774
:102A60004022E1E78022DFE701250023DAE60125A5
:102A7000E1E60025DFE60125DDE60125DBE60125AF
:102A8000D9E60125D7E60125D5E600BF836A13F014
:102A9000010F06D00268536823F40033C16A0B4368
:102AA0005360836A13F0020F06D00268536823F460
:102AB0008033016B0B435360836A13F0040F06D01D
:102AC0000268536823F48023416B0B435360836A8D
:102AD00013F0080F06D00268536823F40043816B9B
:102AE0000B435360836A13F0100F06D0026893689B
:102AF00023F48053C16B0B439360836A13F0200F60
:102B000006D00268936823F40053016C0B43936072
:102B1000836A13F0400F0AD00268536823F48013CD
:102B2000416C0B435360436CB3F5801F0BD0836A39
:102B300013F0800F06D00268536823F40023C16CA1
:102B40000B43536070470268536823F4C003816CE1
:102B50000B435360EBE72DE9F84305460F46164655
:102B60009946DDF820802C68E46937EA04030CBF3D
:102B700001240024B4421FD1B8F1FF3FF3D0FEF787
:102B800091F8A0EB0900404502D8B8F1000FEAD156
:102B90002A68136823F4D07313602A68936823F0BB
:102BA000010393602023C5F88030C5F884300023EA
:102BB00085F87C30032000E00020BDE8F88330B5C4
:102BC00083B004460023C0F88830FEF76BF8054652
:102BD00023681B6813F0080F0ED123681B6813F0DD
:102BE000040F17D12023C4F88030C4F884300020AB
:102BF00084F87C0003B030BD6FF07E430093034641
:102C000000224FF400112046FFF7A5FF0028E4D072
:102C10000320EFE76FF07E4300932B4600224FF432
:102C200080012046FFF797FF0028DBD00320E1E773
:102C300078B310B50446D0F880300BB32423C4F821
:102C400080302268136823F0010313602046FFF7E9
:102C500025F9012813D0A36ABBB92268536823F46D
:102C6000904353602268936823F02A03936022689C
:102C7000136843F0010313602046FFF7A0FF10BD67
:102C800080F87C30FDF762FED8E72046FFF7FEFEB5
:102C9000E3E701207047000084B00346184A92E839
:102CA000030004AA02E9030016496A4603C982E840
:102CB00003005A6E32B90122A3F86A20A3F86820F3
:102CC00004B0704719688A68C2F34262886804A930
:102CD00001EB507010F8081CC90010F8100C91FBA3
:102CE000F0F1A3F86A1004A90A4412F8081CC900FC
:102CF00012F8102C91FBF2F2A3F86820E0E700BF75
:102D0000683B00087C3B000890F87C30012B18D011
:102D1000012380F87C302423C0F8803003681A68CF
:102D2000196821F00101196022F000520023436666
:102D300001680A602022C0F8802080F87C301846A4
:102D400070470220704738B590F87C30012B1DD0B9
:102D50000446012380F87C302423C0F880300368C7
:102D60001D681A6822F001021A600268936823F055
:102D7000604319439160FFF78FFF23681D60202394
:102D8000C4F88030002084F87C0038BD0220FCE7C5
:102D900038B590F87C30012B1DD00446012380F813
:102DA0007C302423C0F8803003681D681A6822F044
:102DB00001021A600268936823F06063194391600E
:102DC000FFF76AFF23681D602023C4F880300020CD
:102DD00084F87C0038BD0220FCE70000054BD3F8E6
:102DE000882042F47002C3F888204FF000629A6095
:102DF000704700BF00ED00E000F1080343604FF0B2
:102E0000FF328260C36003610023036070470023C8
:102E10000361704743684B609A688A6051609960AB
:102E20000861036801330360704730B40D68B5F181
:102E3000FF3F11D000F108031C465B681A68AA42E4
:102E4000FAD963684B6099608C60616008610368BF
:102E50000133036030BC70470469F2E703694168DD
:102E600082688A60416851605A68824206D00022B6
:102E700002611A68013A1A601868704782685A60DD
:102E8000F5E70000084B1B681B6823B9074B4FF0A0
:102E9000FF321A607047044B1B68DB68DB685A68B6
:102EA000024B1A60704700BF30000020080100206C
:102EB00010B50446006B00F04DFC204600F04AFCC3
:102EC00010BD2DE9F04780469946089EDDF824A004
:102ED0000A9C276B02F18042013A07EB820727F038
:102EE000070789B30D4600220F2A07D8A95CA3184B
:102EF00083F83410AB5C0BB10132F5E7002384F8A2
:102F00004330062E00D90626E66266640025A564D5
:102F1000201DFFF77CFF04F11800FFF778FF246104
:102F2000C6F10706A6616462E56484F850504A461B
:102F30004146384600F084FC2060BAF1000F01D011
:102F4000CAF80040BDE8F087002384F83430D8E7A1
:102F500038B5002407E004EB840293000E481844BF
:102F6000FFF74AFF0134062CF5D90C4D2846FFF730
:102F700043FF0B4C2046FFF73FFF0A48FFF73CFF9B
:102F80000948FFF739FF0948FFF736FF084B1D6076
:102F9000084B1C6038BD00BF38000020DC0000205A
:102FA000F0000020100100203C010020280100203A
:102FB000300000203400002010B5044600F06AFC08
:102FC000204A1368013313601F4B1B685BB11F4B12
:102FD0001B686BB91C4B1B68DA6AE36A9A4207D814
:102FE000194B1C6004E0184B1C601368012B26D0A1
:102FF000174A136801331360E06A01238340154ABE
:1030000011680B43136000EB8000211D124B03EB92
:103010008000FFF7FFFE00F05FFC0C4B1B686BB1FC
:10302000094B1B68DA6AE36A9A4207D20B4B4FF0EE
:1030300080521A60BFF34F8FBFF36F8F10BDFFF741
:1030400087FFD5E7C40000202C00002024010020C9
:10305000D4000020D80000203800002004ED00E05B
:103060000F4B1B68D3B110B500F014FC0D4BDB689F
:10307000DC68201DFFF7F2FE0B4A1368013B13606A
:10308000074A1368013B136000F026FC2046FFF757
:103090000FFF034B1B68002BE6D110BD704700BF2C
:1030A000C80000203C010020C400002008B5FFF744
:1030B000D7FF064B1B68012BF9D9054B4FF0805207
:1030C0001A60BFF34F8FBFF36F8FF0E73800002017
:1030D00004ED00E070B504460D461D4B1E681D4B07
:1030E00018680430FFF7BAFE50B91A4B1B68DA6A49
:1030F000012303FA02F218490B6823EA02030B606A
:10310000B4F1FF3F0DD03444124B1B685C60A64203
:1031100010D9124B18680F4B19680431FFF785FE60
:1031200070BD002DEFD00B4B196804310C48FFF730
:1031300071FEF5E70B4B1868064B19680431FFF771
:1031400074FE094B1B68A342EAD9074B1C60E7E7F2
:10315000500100202C000020D80000203400002066
:103160002801002030000020080100202DE9F04354
:1031700085B00746884614461E46900000F072FA55
:10318000F0B18146542000F06DFA0546A0B1C0F8B8
:103190003090D5B10023039302950D9B01930C9BB6
:1031A00000933346224641463846FFF78AFE2846BA
:1031B000FFF702FF012005E0484600F0CBFAE8E700
:1031C0004FF0FF3005B0BDE8F0834FF0FF30F9E776
:1031D00000B583B0174B019300230093802216495A
:1031E0001648FFF7C3FF012805D0B0F1FF3F17D005
:1031F00003B05DF804FB4FF0500383F31188BFF375
:103200006F8FBFF34F8F0E4B4FF0FF321A600D4B95
:1032100001221A600C4B00221A6000F0DDFBE7E788
:103220004FF0500383F31188BFF36F8FBFF34F8FBD
:10323000FEE700BF04010020A03B0008AD300008FD
:10324000080100202401002050010020024A1368D8
:1032500001331360704700BFD0000020F8B53A4B2F
:103260001B68002B64D1394B1D6801351D60C5B941
:10327000374B1B681B6843B14FF0500383F3118831
:10328000BFF36F8FBFF34F8FFEE7314A1168314BA9
:10329000186810601960304A136801331360FFF733
:1032A000F1FD2E4B1B68AB4238D900242C4B1B6818
:1032B000DB6A03EB83039A002A4B9B58012B3CD912
:1032C00001243AE00124224B1B681B6843B3204BC6
:1032D0001B68DB68DE6873689D4226D3371D38465D
:1032E000FFF7BCFDB36A1BB106F11800FFF7B6FD8E
:1032F000F36A01229A401C49086802430A6003EB02
:1033000083039A00394617481044FFF783FDF26A99
:10331000134B1B68DB6A9A42D4D2D4E70024D2E76D
:103320000E4B4FF0FF321A60C0E70C4A1360BDE746
:103330000E4A13680133136000240D4B1B6803B160
:1033400001242046F8BD00BFD0000020500100201D
:1033500030000020340000200C0100200801002073
:103360002C00002038000020D8000020CC000020D5
:103370005401002038B5344B1B6843B94FF050035B
:1033800083F31188BFF36F8FBFF34F8FFEE700F019
:1033900081FA2D4B1A68013A1A601B68002B4DD137
:1033A0002A4B1B680BB9002449E00024284B1B68FA
:1033B0001BB3274BDB68DC6804F11800FFF74EFDF8
:1033C000251D2846FFF74AFDE06A01238340214A74
:1033D00011680B43136000EB800029461E4B03EB82
:1033E0008000FFF717FDE26A1C4B1B68DB6A9A42FC
:1033F000DCD31B4B01221A60D8E70CB1FFF742FD6A
:10340000184B1C6874B9164B1C68C4B1164B4FF0AE
:1034100080521A60BFF34F8FBFF36F8F01240EE00D
:10342000013C07D0FFF71AFF0028F9D00C4B01220E
:103430001A60F5E70B4B00221A60E4E7002400F065
:103440004BFA204638BD00BFD0000020C400002049
:1034500010010020D8000020380000202C0000209F
:1034600054010020CC00002004ED00E010B5A8B10C
:1034700004460F4B1B6843B14FF0500383F3118890
:10348000BFF36F8FBFF34F8FFEE7FFF7DFFE002123
:103490002046FFF71FFEFFF76DFF38B9054B4FF0D1
:1034A00080521A60BFF34F8FBFF36F8F10BD00BF04
:1034B000D000002004ED00E0204B1B681BB1204B26
:1034C00001221A6070471E4B00221A601D4B1B68B8
:1034D000B3FA83F3DBB2C3F11F0303EB83018A006A
:1034E00019498A5842B94FF0500383F31188BFF34A
:1034F0006F8FBFF34F8FFEE710B4134903EB8300C8
:1035000082000A4450684068506003EB8304A200C4
:1035100014460832114488420BD003EB83039A000F
:10352000094B13445B68DA68084B1A605DF8044B7A
:1035300070474068044A22445060EEE7D000002003
:1035400054010020D8000020380000202C0000206A
:10355000842801D0033070470020704708B5FFF77A
:1035600037FE002008BDF0B585B00C4645680668FA
:103570000769B0F90800FFF7EBFF03AB0193009078
:103580002346BAB231462846FFF7F0FD012802D1A2
:10359000039805B0F0BD0020FBE708B500B9012095
:1035A000FFF764FF002008BD124A12F0070F1ED07B
:1035B000D11D21F00701C1F5406313440A460E48AE
:1035C0000260002141601344083B23F007030B48CD
:1035D000036059601960991A51601360084B1960B3
:1035E000084B1960084B4FF000421A6070474FF4C7
:1035F0004063E4E75C010020680D002058010020D2
:10360000640D0020600D00205C0D002010B4134BF1
:103610001A461B688342FBD35168541884420AD06F
:1036200041684418A3420BD00360904200D0106060
:103630005DF8044B70474068014451601046EFE765
:10364000074C2468A34206D05B68194441601368A4
:103650001B680360E9E70460E7E700BF680D00202E
:103660005801002070B50446FFF7F0FD344B1B688D
:10367000A3B1344B1B681C424AD134B1083414F056
:10368000070F02D024F007040834002C42D02E4B40
:103690001B68A3424DD32D4B1D6804E0FFF784FF48
:1036A000E7E72B4615466A68A24202D22A68002A3A
:1036B000F7D1234A1268AA423DD01E6808362A680C
:1036C0001A606B681B1B102B10D9281910F0070FFC
:1036D00008D04FF0500383F31188BFF36F8FBFF30F
:1036E0004F8FFEE743606C60FFF790FF6A681649F2
:1036F0000B689B1A0B60164909688B4201D214496A
:103700000B60104B1B6813436B6000232B6002E0BF
:10371000002600E00026FFF72DFE16F0070F0CD064
:103720004FF0500383F31188BFF36F8FBFF34F8FB8
:10373000FEE70026EFE70026EDE7304670BD00BF4C
:10374000580100205C0D0020600D0020680D002055
:10375000640D002080B338B50446A0F1080550F888
:10376000043C164A1268134208D14FF0500383F309
:103770001188BFF36F8FBFF34F8FFEE750F8081C1F
:1037800041B14FF0500383F31188BFF36F8FBFF344
:103790004F8FFEE723EA020340F8043CFFF756FD93
:1037A00054F8041C064A13680B4413602846FFF7BC
:1037B0002DFFFFF7DFFD38BD704700BF5C0D002017
:1037C000600D002082B0002301930D4B1B68B3F104
:1037D000FF3F08D04FF0500383F31188BFF36F8F82
:1037E000BFF34F8FFEE74FF0500383F31188BFF311
:1037F0006F8FBFF34F8F019B002BFCD002B070473F
:103800000C00002008480068006880F308884FF02A
:10381000000080F3148862B661B6BFF34F8FBFF328
:103820006F8F00DF00BF000008ED00E0DFF80C0044
:10383000016841F4700101607047000088ED00E00C
:103840004FF0807340F8043C21F0010140F8081C5F
:10385000054B40F80C3C40F8202C6FF0020340F878
:10386000243C4438704700BFC53700080000000002
:10387000074B19680868B0E8F04F80F30988BFF378
:103880006F8F4FF0000080F311887047AFF3008016
:103890002C0000204FF0500383F31188BFF36F8F8B
:1038A000BFF34F8F0A4A136801331360012B00D016
:1038B0007047084B1B6813F0FF0FF9D04FF050030F
:1038C00083F31188BFF36F8FBFF34F8FFEE700BF05
:1038D0000C00002004ED00E0094B1B6843B94FF0D9
:1038E000500383F31188BFF36F8FBFF34F8FFEE751
:1038F000013B034A13600BB983F31188704700BF83
:103900000C0000200000000000000000000000008B
:10391000EFF30980BFF36F8F154B1A681EF0100F7D
:1039200008BF20ED108A20E9F04F10602DE9090052
:103930004FF0500080F31188BFF34F8FBFF36F8FAC
:10394000FFF7BAFD4FF0000080F3118809BC196839
:103950000868B0E8F04F1EF0100F08BFB0EC108AF6
:1039600080F30988BFF36F8F704700BFAFF300800B
:103970002C00002008B54FF0500383F31188BFF3EB
:103980006F8FBFF34F8FFFF769FC18B1034B4FF0F8
:1039900080521A60002383F3118808BD04ED00E013
:1039A000084A0023136008490B60084B1B6808494C
:1039B000A1FB03139B09013B06490B60072313601E
:1039C000704700BF10E000E018E000E008000020B1
:1039D000D34D621014E000E03A4B1A683A4B9A4219
:1039E00029D0384B1A68394B9A422DD010B582B085
:1039F000374B1A78D2B20192FF221A701B78DBB2D1
:103A00008DF803309DF8033003F05003314A1370F2
:103A1000314B07221A609DF8033013F0800F1CD041
:103A20002D4A1368013B13609DF803305B00DBB245
:103A30008DF80330EFE74FF0500383F31188BFF3A5
:103A40006F8FBFF34F8FFEE74FF0500383F3118862
:103A5000BFF36F8FBFF34F8FFEE71F4B1B68032B26
:103A600008D04FF0500383F31188BFF36F8FBFF37B
:103A70004F8FFEE71B0203F4E063174A1360019BBC
:103A8000DBB2134A1370154B1A6842F470021A60C5
:103A90001A6842F070421A60FFF782FF0024104B50
:103AA0001C60FFF7C3FE0F4A136843F040431360E6
:103AB000FFF7A8FEFFF700FDFFF784FE204602B0E7
:103AC00010BD00BF00ED00E071C20F4170C20F4198
:103AD00000E400E0700D0020740D002020ED00E0F7
:103AE0000C00002034EF00E00D4885460D480E49DB
:103AF0000E4A002302E0D458C4500433C4188C4248
:103B0000F9D30B4A0B4C002301E013600432A242AC
:103B1000FBD3FFF763F9FCF7A7FBFCF7D0FDFEE74B
:103B2000008000200000002010000020B83B0008AA
:103B300010000020CC0E0020FEE70000F8B500BF0A
:103B4000F8BC08BC9E467047F8B500BFF8BC08BC7E
:043B50009E467047D6
:103B5400703B0008E50700080000000000000000BA
:103B64008000000001010103070100006465666133
:103B7400756C745461736B0008040204080101013C
:103B84000000000000000000000000000102030427
:103B940006070809000000000102030449444C45DB
:043BA400000000001D
:083BA800D8C7FF7F01000000F7
:043BB00049020008BE
:043BB40021020008E2
:103BB80001000000100000000024F400AAAAAAAA2C
:0400000508003AE9CC
:00000001FF
